S0180000454C5F456D6265646465645F343135352E73726563E4
S11300000C9438000C9455000C9455000C94AF01DA
S11300100C9455000C9455000C9455000C94550008
S11300200C9455000C9455000C9455000C945500F8
S11300300C9455000C9455000C9455000C945500E8
S11300400C9455000C9455000C9455000C945500D8
S11300500C9455000C9455000C9455000C945500C8
S11300600C9455000C9455000C9455000C945500B8
S113007011241FBECFEFD4E0DEBFCDBF12E0A0E05D
S1130080B1E0ECEDFFE002C005900D92A23CB10797
S1130090D9F722E0A2ECB2E001C01D92A73FB2075B
S11300A0E1F70E94C8000C94EC070C9400008093C4
S11300B0001008958EEA90E00E94570081EA90E0D3
S11300C00E9457008AED90E00E94570082E190E080
S11300D00E94570088EC90E00E94570088EA90E064
S11300E00E9457008FE390E00E94570085ED90E056
S11300F00E94570080E890E00E94570081E890E059
S11301000E94570080E590E00E94570089ED90E03E
S11301100E94570081E290E00E94570080E290E044
S11301200E94570082E090E00E9457008BED90E01F
S11301300E94570080E390E00E9457008DEA90E00F
S11301400E94570080E090E00E94570084EA90E00B
S11301500E94570086EA90E00E9457008FEA90E0E0
S11301600E94570008955D9BFECF8CB908955F9B54
S1130170FECF8CB1089590BD89B988E18AB98EE823
S113018080BD67EB70E083EB90E00E947F030895ED
S11301908FE190E00E94BB0085B7806885BF80B77F
S11301A0806280BF81B3806181BBEBE8F0E0808135
S11301B080648083EAE8F0E0808189608083109223
S11301C0870010928600F89486B7816086BF8BB74B
S11301D080628BBF7894109200140E945A0085EAC2
S11301E00E9457008091CC02813009F449C008F480
S11301F068C0823019F0833011F184C0E4ECF2E07D
S113020087818F9386818F9385818F9384818F9348
S113021083818F9382818F9381818F9380818F9348
S11302208BEE91E09F938F930E94CA038DB79EB784
S11302300A960FB6F8949EBF0FBE8DBFD3CFE4ECE1
S1130240F2E087818F9386818F9385818F93848158
S11302508F9383818F9382818F9381818F93808108
S11302608F9380E192E09F938F930E94CA038DB78E
S11302709EB70A960FB6F8949EBF0FBE8DBFB2CF3D
S1130280E4ECF2E087818F9386818F9385818F934D
S113029084818F9383818F9382818F9381818F93C4
S11302A080818F9387E392E09F938F930E94CA0388
S11302B08DB79EB70A960FB6F8949EBF0FBE8DBF3A
S11302C091CFE4ECF2E087818F9386818F938581CF
S11302D08F9384818F9383818F9382818F93818184
S11302E08F9380818F938EE592E09F938F930E94EA
S11302F0CA038DB79EB70A960FB6F8949EBF0FBE79
S11303008DBF70CF86B3827090E026B395958795A4
S11303109F938F93822F81701F928F93EDECF2E065
S113032087818F9386818F9385818F9384818F9327
S113033083818F9382818F9381818F9380818F9327
S113034084E892E09F938F930E94CA038DB79EB76F
S11303500E960FB6F8949EBF0FBE8DBF43CF1F926B
S11303600F920FB60F9211244F925F926F927F9269
S1130370AF92BF92CF92DF92EF92FF920F931F93AF
S11303802F933F934F935F936F937F938F939F9399
S1130390AF93BF93CF93DF93EF93FF938091C20208
S11303A09091C302892B09F070C0C0E0D4E1288188
S11303B0822F90E0A0E0B0E09C01AD01205831090B
S11303C041095109A8ECB0E00E944303C12CD12C8F
S11303D07601CA94A70196010E9424030DED12E050
S11303E0F80120833183428353832881822F90E054
S11303F0A0E0B0E09C01AD01205831094109510948
S1130400A8ECB0E00E944303A70196010E942403D4
S1130410F80124833583468357832881822F90E013
S1130420A0E0B0E09C01AD01205831094109510917
S1130430A8ECB0E00E944303A70196010E942403A4
S1130440F80120873187428753872881822F90E0E3
S1130450A0E0B0E09C01AD012058310941095109E7
S1130460A8ECB0E00E944303A70196010E94240374
S1130470F801248735874687578781E090E0909379
S1130480C3028093C2021882C0C000E014E1F801E4
S11304902081822F90E0A0E0B0E09C01AD012058C3
S11304A0310941095109A8ECB0E00E944303412CF1
S11304B0512C32014A94A30192010E942403CDECF1
S11304C0D2E0288339834A835B83F8012081822F19
S11304D090E0A0E0B0E09C01AD0120583109410951
S11304E05109A8ECB0E00E944303A30192010E94C9
S11304F024032C833D834E835F83F8012081822F64
S113050090E0A0E0B0E09C01AD0120583109410920
S11305105109A8ECB0E00E944303A30192010E9498
S113052024030F2EFDEDAF2EF2E0BF2EF02DF501CA
S113053080859185A285B38569017A01C81AD90A93
S1130540EA0AFB0AC886D986EA86FB86F801208176
S1130550822F90E0A0E0B0E09C01AD012058310969
S113056041095109A8ECB0E00E944303A3019201A0
S11305700E942403F50184859585A685B785BA0173
S1130580A901481B590B6A0B7B0B4C875D876E874F
S11305907F87E4ECF2E0C082D182E282F38244837A
S11305A055836683778384E08087D701C6010996E3
S11305B0A11DB11D4397A105B10590F44B30510520
S11305C06105710524F082E08093CC021CC0463F93
S11305D05F4F6F4F7F4FBCF483E08093CC0213C016
S11305E08BE0C816D104E104F10424F081E0809387
S11305F0CC0209C0E6EFCE16EFEFDE06EE06FE06ED
S113060014F41092CC0210920014FF91EF91DF9138
S1130610CF91BF91AF919F918F917F916F915F9196
S11306204F913F912F911F910F91FF90EF90DF9089
S1130630CF90BF90AF907F906F905F904F900F904E
S11306400FBE0F901F901895052E97FB1EF4009473
S11306500E943B0357FD07D00E944E0307FC03D0C2
S11306604EF40C943B0350954095309521953F4FA3
S11306704F4F5F4F089590958095709561957F4F8A
S11306808F4F9F4F08950E947003A59F900DB49FB4
S1130690900DA49F800D911D11240895A1E21A2E9E
S11306A0AA1BBB1BFD010DC0AA1FBB1FEE1FFF1F12
S11306B0A217B307E407F50720F0A21BB30BE40B62
S11306C0F50B661F771F881F991F1A9469F76095A9
S11306D07095809590959B01AC01BD01CF01089563
S11306E0A29FB001B39FC001A39F700D811D11246F
S11306F0911DB29F700D811D1124911D08950F93BA
S11307001F93CF93DF93009731F46115710519F4AA
S113071080E090E03AC08B01EC016EE070E081E093
S113072090E00E94C105FC01892B91F380E883834A
S11307300115110571F01387028781E88383809185
S1130740ED029091EE02892B21F4F093EE02E093F6
S1130750ED022097C9F0D187C087838182608383AB
S11307608091EF029091F002892B71F4F093F002E2
S1130770E093EF028091F1029091F202892B21F42F
S1130780F093F202E093F102CF01DF91CF911F9138
S11307900F910895A0E0B0E0E0EDF3E00C94C507FC
S11307A0AE014B5F5F4FFA0161917191AF0180918E
S11307B0EF029091F0020E94E003E2E00C94E10762
S11307C0ABE0B0E0E6EEF3E00C94B5076C017B011E
S11307D08A01FC0117821682838181FFCCC1CE017C
S11307E001963C01F6019381F70193FD859193FFF6
S11307F081917F01882309F4BAC1853239F493FDCC
S1130800859193FF81917F01853229F4B60190E0AF
S11308100E941B07E7CF912C212C312CFFE1F3150B
S1130820D8F08B3279F038F4803279F08332A1F445
S1130830232D20611DC08D3261F0803369F4232D96
S1130840216016C0832D8260382EE32DE4603E2E95
S11308502AC0F32DF8601DC037FC2DC020ED280FF1
S11308602A3040F08E32B9F436FC81C1232D206445
S1130870322E19C036FE06C08AE0989E200D11243F
S1130880922E11C0EAE02E9E200D1124222EF32D6B
S1130890F0623F2E08C08C3621F4832D8068382EF8
S11308A002C0883641F4F70193FD859193FF81914D
S11308B07F018111B3CF982F9F7D9554933028F4F5
S11308C00C5F1F4F9FE399830DC0833631F083374C
S11308D071F0833509F059C021C0F8018081898302
S11308E00E5F1F4F88248394912C530113C0280159
S11308F0F2E04F0E511CF801A080B18036FE03C017
S1130900692D70E002C06FEF7FEFC5010E941007F0
S11309104C018201F32DFF773F2E16C0280122E0FF
S1130920420E511CF801A080B18036FE03C0692D2F
S113093070E002C06FEF7FEFC5010E94FE064C011C
S1130940F32DF0683F2E820133FC1BC0822D90E012
S113095088169906B0F4B60180E290E00E941B0765
S11309602A94F4CFF50137FC859137FE81915F011C
S1130970B60190E00E941B0721102A9421E0821AFC
S113098091088114910471F7E8C0843611F0893616
S113099041F5F80137FE07C060817181828193813E
S11309A00C5F1F4F08C060817181072E000C880BFB
S11309B0990B0E5F1F4FF32DFF763F2E97FF09C053
S11309C090958095709561957F4F8F4F9F4FF068FC
S11309D03F2E2AE030E0A3010E945707882E861894
S11309E045C0853731F4232D2F7EB22E2AE030E026
S11309F025C0932D997FB92E8F36C1F018F4883510
S1130A0079F0B5C0803719F0883721F0B0C0E92FEC
S1130A10E061BE2EB4FE0DC0FB2DF460BF2E09C0F4
S1130A2034FE0AC0292F2660B22E06C028E030E02A
S1130A3005C020E130E002C020E132E0F801B7FE59
S1130A4007C060817181828193810C5F1F4F06C052
S1130A506081718180E090E00E5F1F4FA3010E94CE
S1130A605707882E8618FB2DFF773F2E36FE0DC0C4
S1130A70232D2E7FA22E891458F434FE0BC032FC91
S1130A8009C0832D8E7EA82E05C0B82CA32C03C0CC
S1130A90B82C01C0B92CA4FE0FC0FE01E80DF11D55
S1130AA08081803321F49A2D997EA92E09C0A2FE5B
S1130AB006C0B394B39404C08A2D867809F0B39425
S1130AC0A3FC11C0A0FE06C0B21488F4280C922C1A
S1130AD09B180EC0B21460F4B60180E290E00E944C
S1130AE01B07B394F7CFB21418F42B1802C0982C38
S1130AF0212CA4FE10C0B60180E390E00E941B07E5
S1130B00A2FE17C0A1FC03C088E790E002C088E5FC
S1130B1090E0B6010CC08A2D867859F0A1FE02C07F
S1130B208BE201C080E2A7FC8DE2B60190E00E9456
S1130B301B07891438F4B60180E390E00E941B0778
S1130B409A94F7CF8A94F301E80DF11D8081B601E0
S1130B5090E00E941B078110F5CF222009F442CEB9
S1130B60B60180E290E00E941B072A94F6CFF601BA
S1130B708681978102C08FEF9FEF2B96E2E10C9460
S1130B80D1070F931F93CF93DF93869F8001879F95
S1130B90100D969F100D1124C8010E94DD05EC0173
S1130BA0009729F0A80160E070E00E940907CE01D7
S1130BB0DF91CF911F910F9108950F931F93CF93BE
S1130BC0DF938230910510F482E090E0E091F50229
S1130BD0F091F60220E030E0A0E0B0E0309719F1A7
S1130BE0408151810281138148175907C8F0841745
S1130BF0950769F4109731F012960C931297139697
S1130C001C9327C00093F5021093F60222C021150D
S1130C10310519F04217530718F49A01BD01EF0189
S1130C20DF01F801DBCF21153105F9F0281B390B61
S1130C302430310580F48A819B816115710521F08E
S1130C40FB019383828304C09093F6028093F502A0
S1130C50FE01329644C0FE01E20FF31F819391938B
S1130C6022503109398328833AC02091F30230910C
S1130C70F402232B41F420910201309103013093BB
S1130C80F4022093F3022091000130910101211517
S1130C90310541F42DB73EB740910401509105014F
S1130CA0241B350BE091F302F091F402E217F307F1
S1130CB0A0F42E1B3F0B2817390778F0AC014E5FC8
S1130CC05F4F2417350748F04E0F5F1F5093F4020F
S1130CD04093F3028193919302C0E0E0F0E0CF01EE
S1130CE0DF91CF911F910F910895CF93DF930097D8
S1130CF009F481C0FC01329713821282A091F5029B
S1130D00B091F602109781F420813181820F931FF4
S1130D102091F3023091F4022817390751F5F0932A
S1130D20F402E093F30267C0ED0120E030E0CE1757
S1130D30DF0740F44A815B819E0141155105F1F0C2
S1130D40EA01F5CFD383C28340815181840F951F7B
S1130D50C817D90759F488819981840F951F029681
S1130D60918380838A819B819383828321153105BA
S1130D7029F4F093F602E093F5023DC0E901FB8308
S1130D80EA8349915991C40FD51FEC17FD0761F40B
S1130D9080819181840F951F0296E901998388834C
S1130DA0828193819B838A83E0E0F0E012968D91A7
S1130DB09C911397009719F0FD01DC01F7CF8D91F9
S1130DC09C9111979D012E5F3F4F820F931F20919D
S1130DD0F3023091F4022817390769F4309729F4A3
S1130DE01092F6021092F50202C013821282B0939E
S1130DF0F402A093F302DF91CF910895FC010590D2
S1130E00615070400110D8F7809590958E0F9F1F08
S1130E100895DC0101C06D9341505040E0F70895FE
S1130E20FC016150704001900110D8F780959095B5
S1130E308E0F9F1F08950F931F93CF93DF93FB0192
S1130E40238121FD03C08FEF9FEF2CC022FF16C02A
S1130E5046815781248135814217530744F4A08188
S1130E60B1819D012F5F3F4F318320838C93268175
S1130E7037812F5F3F4F3783268314C08B01EC01EA
S1130E80FB010084F185E02D0995892BE1F6D80159
S1130E9016968D919C911797019617969C938E9315
S1130EA01697CE01DF91CF911F910F910895FA010A
S1130EB0AA27283051F1203181F1E8946F936E7F95
S1130EC06E5F7F4F8F4F9F4FAF4FB1E03ED0B4E086
S1130ED03CD0670F781F891F9A1FA11D680F791FC7
S1130EE08A1F911DA11D6A0F711D811D911DA11DD8
S1130EF020D009F468943F912AE0269F11243019E8
S1130F00305D3193DEF6CF010895462F4770405D82
S1130F104193B3E00FD0C9F7F6CF462F4F70405D31
S1130F204A3318F0495D31FD4052419302D0A9F78C
S1130F30EACFB4E0A6959795879577956795BA9586
S1130F40C9F700976105710508959B01AC010A2E4C
S1130F5006945795479537952795BA95C9F7620F23
S1130F60731F841F951FA01D08952F923F924F92C7
S1130F705F926F927F928F929F92AF92BF92CF9225
S1130F80DF92EF92FF920F931F93CF93DF93CDB72E
S1130F90DEB7CA1BDB0B0FB6F894DEBF0FBECDBFA6
S1130FA009942A88398848885F846E847D848C8477
S1130FB09B84AA84B984C884DF80EE80FD800C8180
S1130FC01B81AA81B981CE0FD11D0FB6F894DEBF63
S10F0FD00FBECDBFED010895F894FFCFD3
S1130FDC0000F70220005374617274696E67205329
S1130FEC52414D20746573742E2E2E005772697401
S1130FFC65207068617365206572726F723A206542
S113100C78745F72616D5B2534645D203D202530FE
S113101C3258202873686F756C6420626520253003
S113102C3258290A0052657472696576616C2070B5
S113103C68617365206572726F723A206578745FAB
S113104C72616D5B2534645D203D2025303258205F
S113105C2873686F756C64206265202530325829BA
S113106C0A005352414D207465737420636F6D7084
S113107C6C657465642077697468200A253464206F
S113108C6572726F727320696E2077726974652051
S113109C706861736520616E64200A253464206570
S11310AC72726F727320696E2072657472696576E0
S11310BC616C2070686173650A0A00444154415B99
S11310CC585D3A20256C64200920444154415B59F5
S11310DC5D3A20256C64200920555020200D0A000F
S11310EC444154415B585D3A20256C6420092044EA
S11310FC4154415B595D3A20256C64200920444FCE
S113110C574E20200D0A00444154415B585D3A204F
S113111C256C64200920444154415B595D3A2025D7
S113112C6C642009205249474854200D0A0044415C
S113113C54415B585D3A20256C6420092044415489
S113114C415B595D3A20256C642009204C4546547A
S113115C200D0A00534C49444552313A20256C6405
S113116C200920534C49444552323A20256C6420C2
S113117C0920425554544F4E20313A2025642009FD
S113118C2020425554544F4E20323A202564200AD4
S105119C0D0040
S9030000FC
